{
  "_format": "hh-sol-artifact-1",
  "contractName": "FlipFlux",
  "sourceName": "contracts/FlipFlux.sol",
  "abi": [
    {
      "inputs": [],
      "stateMutability": "nonpayable",
      "type": "constructor"
    },
    {
      "inputs": [
        {
          "internalType": "address",
          "name": "owner",
          "type": "address"
        }
      ],
      "name": "OwnableInvalidOwner",
      "type": "error"
    },
    {
      "inputs": [
        {
          "internalType": "address",
          "name": "account",
          "type": "address"
        }
      ],
      "name": "OwnableUnauthorizedAccount",
      "type": "error"
    },
    {
      "anonymous": false,
      "inputs": [
        {
          "indexed": true,
          "internalType": "address",
          "name": "player",
          "type": "address"
        },
        {
          "indexed": false,
          "internalType": "uint256",
          "name": "amount",
          "type": "uint256"
        },
        {
          "indexed": false,
          "internalType": "enum FlipFlux.Side",
          "name": "guess",
          "type": "uint8"
        },
        {
          "indexed": false,
          "internalType": "enum FlipFlux.Side",
          "name": "result",
          "type": "uint8"
        },
        {
          "indexed": false,
          "internalType": "bool",
          "name": "won",
          "type": "bool"
        }
      ],
      "name": "BetPlaced",
      "type": "event"
    },
    {
      "anonymous": false,
      "inputs": [
        {
          "indexed": true,
          "internalType": "address",
          "name": "previousOwner",
          "type": "address"
        },
        {
          "indexed": true,
          "internalType": "address",
          "name": "newOwner",
          "type": "address"
        }
      ],
      "name": "OwnershipTransferred",
      "type": "event"
    },
    {
      "anonymous": false,
      "inputs": [
        {
          "indexed": true,
          "internalType": "address",
          "name": "from",
          "type": "address"
        },
        {
          "indexed": false,
          "internalType": "uint256",
          "name": "amount",
          "type": "uint256"
        }
      ],
      "name": "TreasuryFunded",
      "type": "event"
    },
    {
      "anonymous": false,
      "inputs": [
        {
          "indexed": true,
          "internalType": "address",
          "name": "to",
          "type": "address"
        },
        {
          "indexed": false,
          "internalType": "uint256",
          "name": "amount",
          "type": "uint256"
        }
      ],
      "name": "TreasuryWithdrawn",
      "type": "event"
    },
    {
      "inputs": [],
      "name": "bankroll",
      "outputs": [
        {
          "internalType": "uint256",
          "name": "",
          "type": "uint256"
        }
      ],
      "stateMutability": "view",
      "type": "function"
    },
    {
      "inputs": [
        {
          "internalType": "enum FlipFlux.Side",
          "name": "guess",
          "type": "uint8"
        }
      ],
      "name": "flip",
      "outputs": [],
      "stateMutability": "payable",
      "type": "function"
    },
    {
      "inputs": [],
      "name": "owner",
      "outputs": [
        {
          "internalType": "address",
          "name": "",
          "type": "address"
        }
      ],
      "stateMutability": "view",
      "type": "function"
    },
    {
      "inputs": [],
      "name": "renounceOwnership",
      "outputs": [],
      "stateMutability": "nonpayable",
      "type": "function"
    },
    {
      "inputs": [
        {
          "internalType": "address",
          "name": "newOwner",
          "type": "address"
        }
      ],
      "name": "transferOwnership",
      "outputs": [],
      "stateMutability": "nonpayable",
      "type": "function"
    },
    {
      "inputs": [
        {
          "internalType": "uint256",
          "name": "amount",
          "type": "uint256"
        },
        {
          "internalType": "address payable",
          "name": "to",
          "type": "address"
        }
      ],
      "name": "withdraw",
      "outputs": [],
      "stateMutability": "nonpayable",
      "type": "function"
    },
    {
      "stateMutability": "payable",
      "type": "receive"
    }
  ],
  "bytecode": "0x6080604052348015600f57600080fd5b503380603557604051631e4fbdf760e01b81526000600482015260240160405180910390fd5b603c816041565b506091565b600080546001600160a01b038381166001600160a01b0319831681178455604051919092169283917f8be0079c531659141344cd1fd0a4f28419497f9722a3daafe3b4186f6b6457e09190a35050565b610711806100a06000396000f3fe6080604052600436106100585760003560e01c8062f714ce146100995780630c657eb0146100bb578063638c0637146100db578063715018a6146100ee5780638da5cb5b14610103578063f2fde38b1461012b57600080fd5b366100945760405134815233907fda1785fe1dec267c363b06ae3e02c3e086123f9d611399f7a1cc98492518372e9060200160405180910390a2005b600080fd5b3480156100a557600080fd5b506100b96100b4366004610578565b61014b565b005b3480156100c757600080fd5b506040514781526020015b60405180910390f35b6100b96100e93660046105a8565b61027a565b3480156100fa57600080fd5b506100b9610420565b34801561010f57600080fd5b506000546040516001600160a01b0390911681526020016100d2565b34801561013757600080fd5b506100b96101463660046105d0565b610434565b610153610472565b4782111561019d5760405162461bcd60e51b8152602060048201526012602482015271496e73756666696369656e742066756e647360701b60448201526064015b60405180910390fd5b6000816001600160a01b03168360405160006040518083038185875af1925050503d80600081146101ea576040519150601f19603f3d011682016040523d82523d6000602084013e6101ef565b606091505b50509050806102325760405162461bcd60e51b815260206004820152600f60248201526e15da5d1a191c985dc819985a5b1959608a1b6044820152606401610194565b816001600160a01b03167f41fdd680478135993bc53fb2ffaf9560951b57ef62ff6badd02b61e018b4f17f8460405161026d91815260200190565b60405180910390a2505050565b34806102b95760405162461bcd60e51b815260206004820152600e60248201526d15d859d95c881c995c5d5a5c995960921b6044820152606401610194565b6102c4600247610619565b8111156103065760405162461bcd60e51b815260206004820152601060248201526f547265617375727920746f6f206c6f7760801b6044820152606401610194565b600061031061049f565b905060008360018111156103265761032661062d565b8260018111156103385761033861062d565b14905080156103d35760003361034f856002610643565b604051600081818185875af1925050503d806000811461038b576040519150601f19603f3d011682016040523d82523d6000602084013e610390565b606091505b50509050806103d15760405162461bcd60e51b815260206004820152600d60248201526c14185e5bdd5d0819985a5b1959609a1b6044820152606401610194565b505b336001600160a01b03167fb59551fefb181aa7eaef0eeb0673db5266ef196a6645b18033aa54217942cee4848685856040516104129493929190610682565b60405180910390a250505050565b610428610472565b6104326000610513565b565b61043c610472565b6001600160a01b03811661046657604051631e4fbdf760e01b815260006004820152602401610194565b61046f81610513565b50565b6000546001600160a01b031633146104325760405163118cdaa760e01b8152336004820152602401610194565b600060026104ae6001436106b4565b6040805191406020830152429082015233606090811b6bffffffffffffffffffffffff1916908201526074016040516020818303038152906040528051906020012060001c6104fd91906106c7565b600181111561050e5761050e61062d565b905090565b600080546001600160a01b038381166001600160a01b0319831681178455604051919092169283917f8be0079c531659141344cd1fd0a4f28419497f9722a3daafe3b4186f6b6457e09190a35050565b6001600160a01b038116811461046f57600080fd5b6000806040838503121561058b57600080fd5b82359150602083013561059d81610563565b809150509250929050565b6000602082840312156105ba57600080fd5b8135600281106105c957600080fd5b9392505050565b6000602082840312156105e257600080fd5b81356105c981610563565b634e487b7160e01b600052601260045260246000fd5b634e487b7160e01b600052601160045260246000fd5b600082610628576106286105ed565b500490565b634e487b7160e01b600052602160045260246000fd5b808202811582820484141761065a5761065a610603565b92915050565b6002811061067e57634e487b7160e01b600052602160045260246000fd5b9052565b848152608081016106966020830186610660565b6106a36040830185610660565b821515606083015295945050505050565b8181038181111561065a5761065a610603565b6000826106d6576106d66105ed565b50069056fea264697066735822122021f426fc4a8aa7913cee4053d6f5497175849165bd0d73b563a4e4decfee605364736f6c63430008190033",
  "linkReferences": {},
  "deployedLinkReferences": {}
}